:02000000F82FD7
:100E6E003430831685008312850183169F01073067
:100E7E00831299008312051E452F462F602F7C0882
:100E8E0003194A2F4C2F01304D2F0030FC00023039
:100E9E00F2000430F100BA30F000F00B542FF10BD9
:100EAE00542FF20B542F00008312051A5F2F602F60
:100EBE005B2F851E632F642F7E2F7B080319682FEF
:100ECE006A2F01306B2F0030FB000230F20004302D
:100EDE00F100BA30F000F00B722FF10B722FF20B03
:100EEE00722F00008312851A7D2F7E2F792F051DFC
:100EFE00812F822F9C2F7A080319862F882F01307D
:100F0E00892F0030FA000230F2000430F100BA30BE
:100F1E00F000F00B902FF10B902FF20B902F0000A2
:100F2E00831205199B2F9C2F972F0D30F100FB304C
:100F3E00F000F00BA02FF10BA02FA52F0A30F70712
:100F4E000318F80A0030F80701307802F43003195C
:100F5E007702031CB32FB42F412FF701F801790844
:100F6E000319BA2FBC2F0130BD2F0030F9007C08B9
:100F7E00031DC22FC32FCB2F7A08031DC72FC82FD7
:100F8E00CB2FF301F401D22F7908F000F101700894
:100F9E00F3007108F4007318D52FD82F831205149F
:100FAE00DA2F831205107B08031DDE2FDF2FE72FAC
:100FBE007A08031DE32FE42FE72FF501F601EE2F3C
:100FCE007908F000F1017008F5007108F600751847
:100FDE00F12FF42F83128514F62F83128510412FD3
:100FEE000028F701F801F901FA01FB01FC01830168
:020FFE00372F8B
:02400E00D430AC
:00000001FF
