:100000000A128A11FC2F00308A000408840A820731
:1000100000343F3406345B344F3466346D347D3401
:0600200007347F346F3449
:100ED6008E30831603139F004130831203139F0045
:100EE60008000630F200F20B762F0000831203137F
:100EF6001F151F197F2F802F7C2F1E08F1008316C8
:100F060003131E08F0000800F401F501701C8C2F75
:100F16008D2F932F7208F4070318F50A7308F50747
:100F260001300310F20DF30DFF3E031D942F013027
:100F36000310F10CF00CFF3E031D9B2F700871048B
:100F4600031DA62FA72F892F7508F1007408F0003E
:100F56000800FF30831603138500860183120313EE
:100F660086010A128A116B270A128A110A128A113D
:100F760074270A128A117108F9007008F8007908B6
:100F8600F1007808F0000A30F2000030F3000A128F
:100F96008A1187270A128A117008F6007108F7006D
:100FA6000A300310F70CF60CFF3E031DD42F76080B
:100FB600FA000A307A02031CE12FE22FE42F0930EF
:100FC600FA007A08013E84000A128A1103200A12E6
:100FD6008A118312031386008230F700DD30F60093
:100FE600F60BF32FF70BF32FF82FB92F0A128A11EE
:0A0FF600002883010A128A11AC2FB3
:02400E00393D3A
:00000001FF
