:100000000A128A11F62F00308A000408840A820737
:0A00100000343F3406345B344F34F3
:100D5A00F600043076020318B32EB42EBF2E76089E
:100D6A00013E84000A128A1103200A128A11831290
:100D7A000313880008008312031307150330F800D1
:100D8A008A30F7005530F600F60BC92EF70BC92E3C
:100D9A00F80BC92ED02E8312031307110800FF3057
:100DAA0083160313860087018801811383120313B4
:100DBA0087018801F401F301F501071400300A12D2
:100DCA008A11AD260A128A1183120313861AEE2E8D
:100DDA00EF2E0F2F4130FA00EE30F900F90BF32E07
:100DEA00FA0BF32E000083120313861AFD2EFE2E31
:100DFA000F2F72080319022F042F0130052F00301C
:100E0A00F200720C031C871003188714861E0E2F1B
:100E1A000F2F0B2F72080319132F142F322F0715B8
:100E2A000230FB000430FA00BA30F900F90B1B2F2C
:100E3A00FA0B1B2FFB0B1B2F000083120313071146
:100E4A000530FB000F30FA00F130F900F90B2B2FB7
:100E5A00FA0B2B2FFB0B2B2FE92F7508031D362FAF
:100E6A00372F6E2F071406183B2F3C2F3D2FF30107
:100E7A008618402F412F432F0130F3000619462FC1
:100E8A00472F492F0230F30086194C2F4D2F4F2F31
:100E9A000330F300730874060319542F552F6B2F70
:100EAA000130F0070318F10A0030F107003071022F
:100EBA00C830031970020318632F642F682F061AAB
:100ECA00672F682FE92F0130F500E92FF001F101B2
:100EDA00E92F7503031D722F732F952F0710063004
:100EEA00FB001330FA00AD30F900F90B7A2FFA0B38
:100EFA007A2FFB0B7A2F812F730874020318862F1F
:100F0A00872F8A2F0230F500E92F7408730203181D
:100F1A008F2F902F932F0330F500E92FF501E92F3A
:100F2A0002307506031D9A2F9B2FBA2F730874027D
:100F3A000318A02FA12FB72F0B30FB002630FA0081
:100F4A005D30F900F90BA72FFA0BA72FFB0BA72F80
:100F5A00AE2F0130F40774080A128A11AD260A125C
:100F6A008A11E92F0430F500E92F03307506031DB5
:100F7A00BF2FC02FDC2F740873020318C52FC62F8A
:100F8A00B72F0B30FB002630FA005D30F900F90B61
:100F9A00CC2FFA0BCC2FFB0BCC2FD32F0130F40222
:100FAA0074080A128A11AD260A128A11E92F04302E
:100FBA007506031DE12FE22FE92F0A128A11C026B6
:100FCA000A128A11F5016B2F4130FA00EE30F9004E
:100FDA00F90BED2FFA0BED2F0000E92E0A128A11F8
:100FEA000028F001F101F201F301F401F501830196
:060FFA000A128A11D42E38
:02400E00393F38
:00000001FF
