:02000000FE2FD1
:100EFC0008308316850083128501F401F3018312F7
:100F0C00851D892F8A2FA12F7308031D8E2F8F2FDC
:100F1C00A12F0130F40704307402031C962F972F75
:100F2C00982FF4014130F100EE30F000F00B9C2FC3
:100F3C00F10B9C2F00000030831285190130F30057
:100F4C007408031DAA2FAB2FAD2F0510852F74032A
:100F5C00031DB12FB22FB42F0514852F0230740648
:100F6C00031DB92FBA2FD82F05140630F2001330F9
:100F7C00F100AD30F000F00BC12FF10BC12FF20BD3
:100F8C00C12FC82F831205100630F2001330F10068
:100F9C00AD30F000F00BD02FF10BD02FF20BD02F87
:100FAC00D72F852F03307406031DDD2FDE2FFC2F6A
:100FBC0005140430F2000C30F1003330F000F00B6B
:100FCC00E52FF10BE52FF20BE52FEC2F831205101B
:100FDC000430F2000C30F1003330F000F00BF42F41
:100FEC00F10BF42FF20BF42FFB2F852F852F0028FC
:040FFC0083017E2FC0
:02400E00D73C9D
:00000001FF
