:02000000FD2BD6
:10073A000730831299008316051085100511851557
:10074A008312A301A4010510851005118312851DCA
:10075A00AF2BB02BAB2B033023062404031DB62B7F
:10076A00B72BBA2BA301A401C02B0130A30703188E
:10077A00A40A0030A40723082404031DC52BC62B92
:10078A00CA2B051085100511EF2B23032404031D22
:10079A00CF2BD02BD42B051485100511EF2B02304B
:1007AA0023062404031DDA2BDB2BDF2B051085140B
:1007BA000511EF2B033023062404031DE52BE62B3A
:1007CA00EA2B051085100515EF2BA301A4010510CE
:1007DA00851005110530A2000F30A100F130A000EC
:1007EA00A00BF52BA10BF52BA20BF52BAB2B00289D
:0407FA0083019D2BAF
:02400E00C531BA
:00000001FF
