:100000000A128A11FC2F00308A000408840A820731
:1000100000343F3406345B344F3466346D347D3401
:0600200007347F346F3449
:100CF200F00070088312031388000800F10001302D
:100D0200F000710A862E0310F00DFF3E031D842EA3
:100D12007008FF3A8312031386000800F501F31FDF
:100D2200932E942E9B2EF209F309F20A0319F30A69
:100D32000130F500F11F9E2E9F2EA42EF009F1091D
:100D4200F00A0319F10A700871040319A92EAA2ED8
:100D5200D72E0130F400B62E01300310F00DF10D44
:100D6200FF3E031DAE2E0130F407F11FB92EBA2E3D
:100D7200AD2E71087302031DC02E70087202031C8F
:100D8200C32EC42ECA2E7008F2027108031CF3038C
:100D9200F30201300310F10CF00CFF3E031DCB2EC9
:100DA2000130F402031DD62ED72EBA2E7508031970
:100DB200DB2EDC2EE12EF209F309F20A0319F30A03
:100DC2007308F1007208F0000800F501F11FEA2E25
:100DD200EB2EF22EF009F109F00A0319F10A0130A3
:100DE200F500F31FF52EF62EFD2EF209F309F20A95
:100DF2000319F30A0130F506F601F70170087104D0
:100E02000319042F052F3A2F0130F400112F01305E
:100E12000310F00DF10DFF3E031D092F0130F40701
:100E2200F11F142F152F082F01300310F60DF70DA7
:100E3200FF3E031D162F71087302031D222F700837
:100E42007202031C252F262F2D2F7008F202710823
:100E5200031CF303F302761401300310F10CF00CBF
:100E6200FF3E031D2E2F0130F402031D392F3A2FAE
:100E7200152F750803193E2F3F2F442FF609F70946
:100E8200F60A0319F70A7708F1007608F00008005D
:100E92008316031388018601831203138801FF302E
:100EA2008600A601A701A401A5010A30F0000030C6
:100EB200F1002608F800F9017808F2007908F30039
:100EC2000A128A11E6260A128A1170088312031383
:100ED200A0000A30F0000030F1002608F800F90105
:100EE2007808F2007908F3000A128A118F260A1292
:100EF2008A11700883120313A1000A30F000003037
:100F0200F1002708F800F9017808F2007908F300E7
:100F12000A128A11E6260A128A1170088312031332
:100F2200A2000A30F0000030F1002708F800F901B1
:100F32007808F2007908F3000A128A118F260A1241
:100F42008A11700883120313A300A80128080A1249
:100F52008A117F260A128A11831203132808203E5F
:100F6200840083130008013E84000A128A110320C0
:100F72000A128A110A128A1179260A128A11073074
:100F8200F9007D30F800F80BC42FF90BC42FFF30A5
:100F92008312031386000130A80704302802031CC1
:100FA200D32FD42FA72F0130A4070318A50A00308E
:100FB200A50700302502323003192402031CE22F58
:100FC200E32F562FA401A5010130A7073C302702C9
:100FD200031CEC2FED2F562FA7010130A6073C3042
:100FE2002602031CF52FF62FF82FA601562F562F97
:0E0FF2000A128A11002883010A128A11492F5F
:02400E00313D42
:00000001FF
